{
  "_format": "hh-sol-artifact-1",
  "contractName": "SafeLite",
  "sourceName": "contracts/SafeLite.sol",
  "abi": [
    {
      "inputs": [
        {
          "internalType": "uint256",
          "name": "_chainId",
          "type": "uint256"
        },
        {
          "internalType": "address[]",
          "name": "_owners",
          "type": "address[]"
        },
        {
          "internalType": "uint256",
          "name": "_signaturesRequired",
          "type": "uint256"
        }
      ],
      "stateMutability": "nonpayable",
      "type": "constructor"
    },
    {
      "anonymous": false,
      "inputs": [
        {
          "indexed": true,
          "internalType": "address",
          "name": "sender",
          "type": "address"
        },
        {
          "indexed": false,
          "internalType": "uint256",
          "name": "amount",
          "type": "uint256"
        },
        {
          "indexed": false,
          "internalType": "uint256",
          "name": "balance",
          "type": "uint256"
        }
      ],
      "name": "Deposit",
      "type": "event"
    },
    {
      "anonymous": false,
      "inputs": [
        {
          "indexed": true,
          "internalType": "address",
          "name": "owner",
          "type": "address"
        },
        {
          "indexed": false,
          "internalType": "address payable",
          "name": "to",
          "type": "address"
        },
        {
          "indexed": false,
          "internalType": "uint256",
          "name": "value",
          "type": "uint256"
        },
        {
          "indexed": false,
          "internalType": "bytes",
          "name": "data",
          "type": "bytes"
        },
        {
          "indexed": false,
          "internalType": "uint256",
          "name": "nonce",
          "type": "uint256"
        },
        {
          "indexed": false,
          "internalType": "bytes32",
          "name": "hash",
          "type": "bytes32"
        },
        {
          "indexed": false,
          "internalType": "bytes",
          "name": "result",
          "type": "bytes"
        }
      ],
      "name": "ExecuteTransaction",
      "type": "event"
    },
    {
      "anonymous": false,
      "inputs": [
        {
          "indexed": true,
          "internalType": "address",
          "name": "owner",
          "type": "address"
        },
        {
          "indexed": false,
          "internalType": "bool",
          "name": "added",
          "type": "bool"
        }
      ],
      "name": "Owner",
      "type": "event"
    },
    {
      "anonymous": false,
      "inputs": [
        {
          "indexed": false,
          "internalType": "address",
          "name": "by",
          "type": "address"
        },
        {
          "indexed": false,
          "internalType": "uint256",
          "name": "nonce",
          "type": "uint256"
        },
        {
          "indexed": false,
          "internalType": "uint256",
          "name": "totalSignatures",
          "type": "uint256"
        }
      ],
      "name": "TransactionSigned",
      "type": "event"
    },
    {
      "inputs": [
        {
          "internalType": "address",
          "name": "newSigner",
          "type": "address"
        },
        {
          "internalType": "uint256",
          "name": "newSignaturesRequired",
          "type": "uint256"
        }
      ],
      "name": "addSigner",
      "outputs": [],
      "stateMutability": "nonpayable",
      "type": "function"
    },
    {
      "inputs": [],
      "name": "chainId",
      "outputs": [
        {
          "internalType": "uint256",
          "name": "",
          "type": "uint256"
        }
      ],
      "stateMutability": "view",
      "type": "function"
    },
    {
      "inputs": [],
      "name": "getBalance",
      "outputs": [
        {
          "internalType": "uint256",
          "name": "",
          "type": "uint256"
        }
      ],
      "stateMutability": "view",
      "type": "function"
    },
    {
      "inputs": [],
      "name": "getMultiSigWalletAddress",
      "outputs": [
        {
          "internalType": "address",
          "name": "",
          "type": "address"
        }
      ],
      "stateMutability": "view",
      "type": "function"
    },
    {
      "inputs": [],
      "name": "getOwners",
      "outputs": [
        {
          "internalType": "address[]",
          "name": "",
          "type": "address[]"
        }
      ],
      "stateMutability": "view",
      "type": "function"
    },
    {
      "inputs": [
        {
          "internalType": "uint256",
          "name": "transactionId",
          "type": "uint256"
        }
      ],
      "name": "getSignatureCount",
      "outputs": [
        {
          "internalType": "uint256",
          "name": "",
          "type": "uint256"
        }
      ],
      "stateMutability": "view",
      "type": "function"
    },
    {
      "inputs": [
        {
          "internalType": "uint256",
          "name": "transactionId",
          "type": "uint256"
        }
      ],
      "name": "getTransaction",
      "outputs": [
        {
          "internalType": "address",
          "name": "",
          "type": "address"
        },
        {
          "internalType": "uint256",
          "name": "",
          "type": "uint256"
        },
        {
          "internalType": "bytes",
          "name": "",
          "type": "bytes"
        },
        {
          "internalType": "bool",
          "name": "",
          "type": "bool"
        },
        {
          "internalType": "uint256",
          "name": "",
          "type": "uint256"
        }
      ],
      "stateMutability": "view",
      "type": "function"
    },
    {
      "inputs": [
        {
          "internalType": "uint256",
          "name": "_nonce",
          "type": "uint256"
        },
        {
          "internalType": "address",
          "name": "to",
          "type": "address"
        },
        {
          "internalType": "uint256",
          "name": "value",
          "type": "uint256"
        },
        {
          "internalType": "bytes",
          "name": "data",
          "type": "bytes"
        }
      ],
      "name": "getTransactionHash",
      "outputs": [
        {
          "internalType": "bytes32",
          "name": "",
          "type": "bytes32"
        }
      ],
      "stateMutability": "view",
      "type": "function"
    },
    {
      "inputs": [
        {
          "internalType": "address",
          "name": "",
          "type": "address"
        }
      ],
      "name": "isOwner",
      "outputs": [
        {
          "internalType": "bool",
          "name": "",
          "type": "bool"
        }
      ],
      "stateMutability": "view",
      "type": "function"
    },
    {
      "inputs": [],
      "name": "multiSigWalletAddress",
      "outputs": [
        {
          "internalType": "address",
          "name": "",
          "type": "address"
        }
      ],
      "stateMutability": "view",
      "type": "function"
    },
    {
      "inputs": [],
      "name": "nonce",
      "outputs": [
        {
          "internalType": "uint256",
          "name": "",
          "type": "uint256"
        }
      ],
      "stateMutability": "view",
      "type": "function"
    },
    {
      "inputs": [
        {
          "internalType": "uint256",
          "name": "",
          "type": "uint256"
        }
      ],
      "name": "owners",
      "outputs": [
        {
          "internalType": "address",
          "name": "",
          "type": "address"
        }
      ],
      "stateMutability": "view",
      "type": "function"
    },
    {
      "inputs": [
        {
          "internalType": "bytes32",
          "name": "_hash",
          "type": "bytes32"
        },
        {
          "internalType": "bytes",
          "name": "_signature",
          "type": "bytes"
        }
      ],
      "name": "recover",
      "outputs": [
        {
          "internalType": "address",
          "name": "",
          "type": "address"
        }
      ],
      "stateMutability": "pure",
      "type": "function"
    },
    {
      "inputs": [
        {
          "internalType": "address",
          "name": "oldSigner",
          "type": "address"
        },
        {
          "internalType": "uint256",
          "name": "newSignaturesRequired",
          "type": "uint256"
        }
      ],
      "name": "removeSigner",
      "outputs": [],
      "stateMutability": "nonpayable",
      "type": "function"
    },
    {
      "inputs": [
        {
          "internalType": "uint256",
          "name": "_nonce",
          "type": "uint256"
        },
        {
          "internalType": "address payable",
          "name": "to",
          "type": "address"
        },
        {
          "internalType": "uint256",
          "name": "value",
          "type": "uint256"
        },
        {
          "internalType": "bytes",
          "name": "data",
          "type": "bytes"
        },
        {
          "internalType": "bytes",
          "name": "signature",
          "type": "bytes"
        }
      ],
      "name": "signTransaction",
      "outputs": [],
      "stateMutability": "nonpayable",
      "type": "function"
    },
    {
      "inputs": [],
      "name": "signaturesRequired",
      "outputs": [
        {
          "internalType": "uint256",
          "name": "",
          "type": "uint256"
        }
      ],
      "stateMutability": "view",
      "type": "function"
    },
    {
      "inputs": [
        {
          "internalType": "uint256",
          "name": "",
          "type": "uint256"
        }
      ],
      "name": "transactions",
      "outputs": [
        {
          "internalType": "address payable",
          "name": "to",
          "type": "address"
        },
        {
          "internalType": "uint256",
          "name": "value",
          "type": "uint256"
        },
        {
          "internalType": "bytes",
          "name": "data",
          "type": "bytes"
        },
        {
          "internalType": "bool",
          "name": "executed",
          "type": "bool"
        },
        {
          "internalType": "uint256",
          "name": "signatureCount",
          "type": "uint256"
        }
      ],
      "stateMutability": "view",
      "type": "function"
    },
    {
      "inputs": [
        {
          "internalType": "uint256",
          "name": "newSignaturesRequired",
          "type": "uint256"
        }
      ],
      "name": "updateSignaturesRequired",
      "outputs": [],
      "stateMutability": "nonpayable",
      "type": "function"
    },
    {
      "stateMutability": "payable",
      "type": "receive"
    }
  ],
  "bytecode": "0x60806040523480156200001157600080fd5b5060405162001e9c38038062001e9c83398101604081905262000034916200029f565b600081116200009e5760405162461bcd60e51b815260206004820152602b60248201527f636f6e7374727563746f723a206d757374206265206e6f6e2d7a65726f20736960448201526a19dcc81c995c5d5a5c995960aa1b60648201526084015b60405180910390fd5b600281905560005b82518110156200024e576000838281518110620000c757620000c762000388565b6020026020010151905060006001600160a01b0316816001600160a01b031603620001355760405162461bcd60e51b815260206004820152601960248201527f636f6e7374727563746f723a207a65726f206164647265737300000000000000604482015260640162000095565b6001600160a01b03811660009081526020819052604090205460ff1615620001a05760405162461bcd60e51b815260206004820152601d60248201527f636f6e7374727563746f723a206f776e6572206e6f7420756e69717565000000604482015260640162000095565b6001600160a01b03811660008181526020818152604091829020805460ff19166001908117825580548082019091557fb10e2d527612073b26eecdfd717e6a320cf44b4afac2b0732d9fcbe2b7fa0cf60180546001600160a01b0319168517905554915160ff909216151582527ffe545f48304051c4029eb2da9927daa59da0414b4b084fdceaf2955b609b899e910160405180910390a2508062000245816200039e565b915050620000a6565b505050600455600580546001600160a01b03191630179055620003c6565b634e487b7160e01b600052604160045260246000fd5b80516001600160a01b03811681146200029a57600080fd5b919050565b600080600060608486031215620002b557600080fd5b8351602080860151919450906001600160401b0380821115620002d757600080fd5b818701915087601f830112620002ec57600080fd5b8151818111156200030157620003016200026c565b8060051b604051601f19603f830116810181811085821117156200032957620003296200026c565b60405291825284820192508381018501918a8311156200034857600080fd5b938501935b828510156200037157620003618562000282565b845293850193928501926200034d565b809750505050505050604084015190509250925092565b634e487b7160e01b600052603260045260246000fd5b600060018201620003bf57634e487b7160e01b600052601160045260246000fd5b5060010190565b611ac680620003d66000396000f3fe60806040526004361061010d5760003560e01c806365af1bed116100955780639ace38c2116100645780639ace38c214610344578063a0e67e2b14610364578063affed0e014610386578063ce757d291461039c578063eec908dc146103b257600080fd5b806365af1bed146102be5780636d1f451b146102de5780637743007d146102fe5780639a8a05921461032e57600080fd5b80632f54bf6e116100dc5780632f54bf6e146101eb5780633034a7421461022b57806333ea3dc81461024d5780633bad54261461027e578063545a4a3c1461029e57600080fd5b8063025e7c271461015357806312065fe01461019057806319045a25146101ad57806323704eda146101cd57600080fd5b3661014e576040805134815247602082015233917f90890809c654f11d6e72a28fa60149770a0d11ec6c92319d6ceb2bb0a4ea1a15910160405180910390a2005b600080fd5b34801561015f57600080fd5b5061017361016e3660046113a4565b6103d2565b6040516001600160a01b0390911681526020015b60405180910390f35b34801561019c57600080fd5b50475b604051908152602001610187565b3480156101b957600080fd5b506101736101c8366004611460565b6103fc565b3480156101d957600080fd5b506005546001600160a01b0316610173565b3480156101f757600080fd5b5061021b6102063660046114bc565b60006020819052908152604090205460ff1681565b6040519015158152602001610187565b34801561023757600080fd5b5061024b6102463660046113a4565b610441565b005b34801561025957600080fd5b5061026d6102683660046113a4565b6104e4565b604051610187959493929190611530565b34801561028a57600080fd5b5061024b61029936600461156b565b6105c8565b3480156102aa57600080fd5b5061019f6102b9366004611597565b610835565b3480156102ca57600080fd5b5061024b6102d936600461156b565b610874565b3480156102ea57600080fd5b50600554610173906001600160a01b031681565b34801561030a57600080fd5b5061019f6103193660046113a4565b60009081526006602052604090206004015490565b34801561033a57600080fd5b5061019f60045481565b34801561035057600080fd5b5061026d61035f3660046113a4565b610a4e565b34801561037057600080fd5b50610379610b13565b60405161018791906115fa565b34801561039257600080fd5b5061019f60035481565b3480156103a857600080fd5b5061019f60025481565b3480156103be57600080fd5b5061024b6103cd366004611647565b610b75565b600181815481106103e257600080fd5b6000918252602090912001546001600160a01b0316905081565b7f19457468657265756d205369676e6564204d6573736167653a0a3332000000006000908152601c839052603c81206104389083905b90610ed6565b90505b92915050565b3330146104695760405162461bcd60e51b8152600401610460906116d1565b60405180910390fd5b600081116104df5760405162461bcd60e51b815260206004820152603860248201527f7570646174655369676e61747572657352657175697265643a206d757374206260448201527f65206e6f6e2d7a65726f207369677320726571756972656400000000000000006064820152608401610460565b600255565b6000818152600660205260408120805460018201546003830154600484015460028501805487966060968896879692956001600160a01b03909216949093909260ff1691908390610534906116f3565b80601f0160208091040260200160405190810160405280929190818152602001828054610560906116f3565b80156105ad5780601f10610582576101008083540402835291602001916105ad565b820191906000526020600020905b81548152906001019060200180831161059057829003601f168201915b50505050509250955095509550955095505091939590929450565b3330146105e75760405162461bcd60e51b8152600401610460906116d1565b6001600160a01b03821660009081526020819052604090205460ff1661064f5760405162461bcd60e51b815260206004820152601760248201527f72656d6f76655369676e65723a206e6f74206f776e65720000000000000000006044820152606401610460565b600081116106b45760405162461bcd60e51b815260206004820152602c60248201527f72656d6f76655369676e65723a206d757374206265206e6f6e2d7a65726f207360448201526b1a59dcc81c995c5d5a5c995960a21b6064820152608401610460565b6001600160a01b0382166000908152602081905260408120805460ff191690555b6001548110156107d957826001600160a01b0316600182815481106106fc576106fc61172d565b6000918252602090912001546001600160a01b0316036107c75760018054610725908290611759565b815481106107355761073561172d565b600091825260209091200154600180546001600160a01b0390921691839081106107615761076161172d565b9060005260206000200160006101000a8154816001600160a01b0302191690836001600160a01b0316021790555060018054806107a0576107a061176c565b600082815260209020810160001990810180546001600160a01b03191690550190556107d9565b806107d181611782565b9150506106d5565b5060028190556001600160a01b0382166000818152602081815260409182902054915160ff909216151582527ffe545f48304051c4029eb2da9927daa59da0414b4b084fdceaf2955b609b899e91015b60405180910390a25050565b600030600454868686866040516020016108549695949392919061179b565b604051602081830303815290604052805190602001209050949350505050565b3330146108935760405162461bcd60e51b8152600401610460906116d1565b6001600160a01b0382166108e95760405162461bcd60e51b815260206004820152601760248201527f6164645369676e65723a207a65726f20616464726573730000000000000000006044820152606401610460565b6001600160a01b03821660009081526020819052604090205460ff16156109525760405162461bcd60e51b815260206004820152601b60248201527f6164645369676e65723a206f776e6572206e6f7420756e6971756500000000006044820152606401610460565b600081116109b45760405162461bcd60e51b815260206004820152602960248201527f6164645369676e65723a206d757374206265206e6f6e2d7a65726f2073696773604482015268081c995c5d5a5c995960ba1b6064820152608401610460565b6001600160a01b03821660008181526020818152604091829020805460ff19166001908117825580548082019091557fb10e2d527612073b26eecdfd717e6a320cf44b4afac2b0732d9fcbe2b7fa0cf60180546001600160a01b03191685179055600285905554915160ff909216151582527ffe545f48304051c4029eb2da9927daa59da0414b4b084fdceaf2955b609b899e9101610829565b6006602052600090815260409020805460018201546002830180546001600160a01b03909316939192610a80906116f3565b80601f0160208091040260200160405190810160405280929190818152602001828054610aac906116f3565b8015610af95780601f10610ace57610100808354040283529160200191610af9565b820191906000526020600020905b815481529060010190602001808311610adc57829003601f168201915b505050506003830154600490930154919260ff1691905085565b60606001805480602002602001604051908101604052809291908181526020018280548015610b6b57602002820191906000526020600020905b81546001600160a01b03168152600190910190602001808311610b4d575b5050505050905090565b3360009081526020819052604090205460ff16610bfa5760405162461bcd60e51b815260206004820152603e60248201527f7369676e5472616e73616374696f6e3a206f6e6c79206f776e6572732063616e60448201527f20696e697469617465206f72207369676e207472616e73616374696f6e7300006064820152608401610460565b60035485148015610c2057506000858152600660205260409020546001600160a01b0316155b15610c9a576003805460009081526006602052604080822080546001600160a01b0319166001600160a01b038916179055825482528082206001018690559154815220600201610c708382611845565b50600380546000908152600660205260408082208301805460ff1916905591548152908120600401555b6000858152600660205260409020600381015460ff1615610d0b5760405162461bcd60e51b815260206004820152602560248201527f5472616e73616374696f6e2068617320616c7265616479206265656e2065786560448201526418dd5d195960da1b6064820152608401610460565b6000610d1987878787610835565b90506000610d5884610432847f19457468657265756d205369676e6564204d6573736167653a0a3332000000006000908152601c91909152603c902090565b6001600160a01b03811660009081526020819052604090205490915060ff16610dc35760405162461bcd60e51b815260206004820152601e60248201527f5369676e6174757265206973206e6f742066726f6d20616e206f776e657200006044820152606401610460565b6001600160a01b038116600090815260058401602052604090205460ff1615610e2e5760405162461bcd60e51b815260206004820152601a60248201527f5369676e617475726520616c7265616479207265636f726465640000000000006044820152606401610460565b6001600160a01b03811660009081526005840160205260408120805460ff1916600117905560048401805491610e6383611782565b90915550506004830154604080516001600160a01b0384168152602081018b905280820192909252517faa2d7c90b922d8f731344d0dd1eb0b0df439b3a9b17b5a1aa55b71103de906ed9181900360600190a1600254836004015410610ecc57610ecc88610efa565b5050505050505050565b6000806000610ee5858561114e565b91509150610ef281611193565b509392505050565b600081815260066020526040902060025460048201541015610f765760405162461bcd60e51b815260206004820152602f60248201527f657865637574655472616e73616374696f6e3a206e6f7420656e6f756768207660448201526e616c6964207369676e61747572657360881b6064820152608401610460565b600381015460ff1615610fe45760405162461bcd60e51b815260206004820152603060248201527f657865637574655472616e73616374696f6e3a207472616e73616374696f6e2060448201526f185b1c9958591e48195e1958dd5d195960821b6064820152608401610460565b6003808201805460ff19166001179055805490600061100283611782565b90915550508054600182015460405160009283926001600160a01b0390911691611030906002870190611978565b60006040518083038185875af1925050503d806000811461106d576040519150601f19603f3d011682016040523d82523d6000602084013e611072565b606091505b5091509150816110c45760405162461bcd60e51b815260206004820152601d60248201527f657865637574655472616e73616374696f6e3a207478206661696c65640000006044820152606401610460565b8254600184015460405133927f9053e9ec105157fac8c9308d63e6b22be5f50fe915a3e567419b624311a02d74926001600160a01b03909116916002880190899061111790859085908590602001611984565b6040516020818303038152906040528051906020012087604051611140969594939291906119b7565b60405180910390a250505050565b60008082516041036111845760208301516040840151606085015160001a611178878285856112e0565b9450945050505061118c565b506000905060025b9250929050565b60008160048111156111a7576111a7611a7a565b036111af5750565b60018160048111156111c3576111c3611a7a565b036112105760405162461bcd60e51b815260206004820152601860248201527f45434453413a20696e76616c6964207369676e617475726500000000000000006044820152606401610460565b600281600481111561122457611224611a7a565b036112715760405162461bcd60e51b815260206004820152601f60248201527f45434453413a20696e76616c6964207369676e6174757265206c656e677468006044820152606401610460565b600381600481111561128557611285611a7a565b036112dd5760405162461bcd60e51b815260206004820152602260248201527f45434453413a20696e76616c6964207369676e6174757265202773272076616c604482015261756560f01b6064820152608401610460565b50565b6000807f7fffffffffffffffffffffffffffffff5d576e7357a4501ddfe92f46681b20a0831115611317575060009050600361139b565b6040805160008082526020820180845289905260ff881692820192909252606081018690526080810185905260019060a0016020604051602081039080840390855afa15801561136b573d6000803e3d6000fd5b5050604051601f1901519150506001600160a01b0381166113945760006001925092505061139b565b9150600090505b94509492505050565b6000602082840312156113b657600080fd5b5035919050565b634e487b7160e01b600052604160045260246000fd5b600082601f8301126113e457600080fd5b813567ffffffffffffffff808211156113ff576113ff6113bd565b604051601f8301601f19908116603f01168101908282118183101715611427576114276113bd565b8160405283815286602085880101111561144057600080fd5b836020870160208301376000602085830101528094505050505092915050565b6000806040838503121561147357600080fd5b82359150602083013567ffffffffffffffff81111561149157600080fd5b61149d858286016113d3565b9150509250929050565b6001600160a01b03811681146112dd57600080fd5b6000602082840312156114ce57600080fd5b81356114d9816114a7565b9392505050565b60005b838110156114fb5781810151838201526020016114e3565b50506000910152565b6000815180845261151c8160208601602086016114e0565b601f01601f19169290920160200192915050565b60018060a01b038616815284602082015260a06040820152600061155760a0830186611504565b931515606083015250608001529392505050565b6000806040838503121561157e57600080fd5b8235611589816114a7565b946020939093013593505050565b600080600080608085870312156115ad57600080fd5b8435935060208501356115bf816114a7565b925060408501359150606085013567ffffffffffffffff8111156115e257600080fd5b6115ee878288016113d3565b91505092959194509250565b6020808252825182820181905260009190848201906040850190845b8181101561163b5783516001600160a01b031683529284019291840191600101611616565b50909695505050505050565b600080600080600060a0868803121561165f57600080fd5b853594506020860135611671816114a7565b935060408601359250606086013567ffffffffffffffff8082111561169557600080fd5b6116a189838a016113d3565b935060808801359150808211156116b757600080fd5b506116c4888289016113d3565b9150509295509295909350565b6020808252600890820152672737ba1029b2b63360c11b604082015260600190565b600181811c9082168061170757607f821691505b60208210810361172757634e487b7160e01b600052602260045260246000fd5b50919050565b634e487b7160e01b600052603260045260246000fd5b634e487b7160e01b600052601160045260246000fd5b8181038181111561043b5761043b611743565b634e487b7160e01b600052603160045260246000fd5b60006001820161179457611794611743565b5060010190565b60006bffffffffffffffffffffffff19808960601b168352876014840152866034840152808660601b1660548401525083606883015282516117e48160888501602087016114e0565b91909101608801979650505050505050565b601f82111561184057600081815260208120601f850160051c8101602086101561181d5750805b601f850160051c820191505b8181101561183c57828155600101611829565b5050505b505050565b815167ffffffffffffffff81111561185f5761185f6113bd565b6118738161186d84546116f3565b846117f6565b602080601f8311600181146118a857600084156118905750858301515b600019600386901b1c1916600185901b17855561183c565b600085815260208120601f198616915b828110156118d7578886015182559484019460019091019084016118b8565b50858210156118f55787850151600019600388901b60f8161c191681555b5050505050600190811b01905550565b60008154611912816116f3565b6001828116801561192a576001811461193f5761196e565b60ff198416875282151583028701945061196e565b8560005260208060002060005b858110156119655781548a82015290840190820161194c565b50505082870194505b5050505092915050565b60006104388284611905565b6bffffffffffffffffffffffff198460601b16815282601482015260006119ae6034830184611905565b95945050505050565b60018060a01b038716815260006020878184015260c06040840152600087546119df816116f3565b8060c087015260e0600180841660008114611a015760018114611a1b57611a49565b60ff1985168984015283151560051b890183019550611a49565b8c6000528660002060005b85811015611a415781548b8201860152908301908801611a26565b8a0184019650505b505050505086606085015285608085015283810360a0850152611a6c8186611504565b9a9950505050505050505050565b634e487b7160e01b600052602160045260246000fdfea2646970667358221220e2b664e14e9124a1957d3c5b0a5ad3f0c8c4a1eac90f26457b451fbec1c083b664736f6c63430008140033",
  "linkReferences": {},
  "deployedLinkReferences": {}
}