{
  "_format": "hh-sol-artifact-1",
  "contractName": "SafeLite",
  "sourceName": "contracts/SafeLite.sol",
  "abi": [
    {
      "inputs": [
        {
          "internalType": "uint256",
          "name": "_chainId",
          "type": "uint256"
        },
        {
          "internalType": "address[]",
          "name": "_owners",
          "type": "address[]"
        },
        {
          "internalType": "uint256",
          "name": "_signaturesRequired",
          "type": "uint256"
        }
      ],
      "stateMutability": "nonpayable",
      "type": "constructor"
    },
    {
      "anonymous": false,
      "inputs": [
        {
          "indexed": true,
          "internalType": "address",
          "name": "sender",
          "type": "address"
        },
        {
          "indexed": false,
          "internalType": "uint256",
          "name": "amount",
          "type": "uint256"
        },
        {
          "indexed": false,
          "internalType": "uint256",
          "name": "balance",
          "type": "uint256"
        }
      ],
      "name": "Deposit",
      "type": "event"
    },
    {
      "anonymous": false,
      "inputs": [
        {
          "indexed": true,
          "internalType": "address",
          "name": "owner",
          "type": "address"
        },
        {
          "indexed": false,
          "internalType": "address payable",
          "name": "to",
          "type": "address"
        },
        {
          "indexed": false,
          "internalType": "uint256",
          "name": "value",
          "type": "uint256"
        },
        {
          "indexed": false,
          "internalType": "bytes",
          "name": "data",
          "type": "bytes"
        },
        {
          "indexed": false,
          "internalType": "uint256",
          "name": "nonce",
          "type": "uint256"
        },
        {
          "indexed": false,
          "internalType": "bytes32",
          "name": "hash",
          "type": "bytes32"
        },
        {
          "indexed": false,
          "internalType": "bytes",
          "name": "result",
          "type": "bytes"
        }
      ],
      "name": "ExecuteTransaction",
      "type": "event"
    },
    {
      "anonymous": false,
      "inputs": [
        {
          "indexed": true,
          "internalType": "address",
          "name": "owner",
          "type": "address"
        },
        {
          "indexed": false,
          "internalType": "bool",
          "name": "added",
          "type": "bool"
        }
      ],
      "name": "Owner",
      "type": "event"
    },
    {
      "anonymous": false,
      "inputs": [
        {
          "indexed": false,
          "internalType": "address",
          "name": "by",
          "type": "address"
        },
        {
          "indexed": false,
          "internalType": "uint256",
          "name": "nonce",
          "type": "uint256"
        },
        {
          "indexed": false,
          "internalType": "uint256",
          "name": "totalSignatures",
          "type": "uint256"
        }
      ],
      "name": "TransactionSigned",
      "type": "event"
    },
    {
      "inputs": [
        {
          "internalType": "address",
          "name": "newSigner",
          "type": "address"
        },
        {
          "internalType": "uint256",
          "name": "newSignaturesRequired",
          "type": "uint256"
        }
      ],
      "name": "addSigner",
      "outputs": [],
      "stateMutability": "nonpayable",
      "type": "function"
    },
    {
      "inputs": [],
      "name": "chainId",
      "outputs": [
        {
          "internalType": "uint256",
          "name": "",
          "type": "uint256"
        }
      ],
      "stateMutability": "view",
      "type": "function"
    },
    {
      "inputs": [],
      "name": "getMultiSigWalletAddress",
      "outputs": [
        {
          "internalType": "address",
          "name": "",
          "type": "address"
        }
      ],
      "stateMutability": "view",
      "type": "function"
    },
    {
      "inputs": [],
      "name": "getOwners",
      "outputs": [
        {
          "internalType": "address[]",
          "name": "",
          "type": "address[]"
        }
      ],
      "stateMutability": "view",
      "type": "function"
    },
    {
      "inputs": [
        {
          "internalType": "uint256",
          "name": "transactionId",
          "type": "uint256"
        }
      ],
      "name": "getSignatureCount",
      "outputs": [
        {
          "internalType": "uint256",
          "name": "",
          "type": "uint256"
        }
      ],
      "stateMutability": "view",
      "type": "function"
    },
    {
      "inputs": [
        {
          "internalType": "uint256",
          "name": "transactionId",
          "type": "uint256"
        }
      ],
      "name": "getTransaction",
      "outputs": [
        {
          "internalType": "address",
          "name": "",
          "type": "address"
        },
        {
          "internalType": "uint256",
          "name": "",
          "type": "uint256"
        },
        {
          "internalType": "bytes",
          "name": "",
          "type": "bytes"
        },
        {
          "internalType": "bool",
          "name": "",
          "type": "bool"
        },
        {
          "internalType": "uint256",
          "name": "",
          "type": "uint256"
        }
      ],
      "stateMutability": "view",
      "type": "function"
    },
    {
      "inputs": [
        {
          "internalType": "uint256",
          "name": "_nonce",
          "type": "uint256"
        },
        {
          "internalType": "address",
          "name": "to",
          "type": "address"
        },
        {
          "internalType": "uint256",
          "name": "value",
          "type": "uint256"
        },
        {
          "internalType": "bytes",
          "name": "data",
          "type": "bytes"
        }
      ],
      "name": "getTransactionHash",
      "outputs": [
        {
          "internalType": "bytes32",
          "name": "",
          "type": "bytes32"
        }
      ],
      "stateMutability": "view",
      "type": "function"
    },
    {
      "inputs": [
        {
          "internalType": "address",
          "name": "",
          "type": "address"
        }
      ],
      "name": "isOwner",
      "outputs": [
        {
          "internalType": "bool",
          "name": "",
          "type": "bool"
        }
      ],
      "stateMutability": "view",
      "type": "function"
    },
    {
      "inputs": [],
      "name": "multiSigWalletAddress",
      "outputs": [
        {
          "internalType": "address",
          "name": "",
          "type": "address"
        }
      ],
      "stateMutability": "view",
      "type": "function"
    },
    {
      "inputs": [],
      "name": "nonce",
      "outputs": [
        {
          "internalType": "uint256",
          "name": "",
          "type": "uint256"
        }
      ],
      "stateMutability": "view",
      "type": "function"
    },
    {
      "inputs": [
        {
          "internalType": "uint256",
          "name": "",
          "type": "uint256"
        }
      ],
      "name": "owners",
      "outputs": [
        {
          "internalType": "address",
          "name": "",
          "type": "address"
        }
      ],
      "stateMutability": "view",
      "type": "function"
    },
    {
      "inputs": [
        {
          "internalType": "bytes32",
          "name": "_hash",
          "type": "bytes32"
        },
        {
          "internalType": "bytes",
          "name": "_signature",
          "type": "bytes"
        }
      ],
      "name": "recover",
      "outputs": [
        {
          "internalType": "address",
          "name": "",
          "type": "address"
        }
      ],
      "stateMutability": "pure",
      "type": "function"
    },
    {
      "inputs": [
        {
          "internalType": "address",
          "name": "oldSigner",
          "type": "address"
        },
        {
          "internalType": "uint256",
          "name": "newSignaturesRequired",
          "type": "uint256"
        }
      ],
      "name": "removeSigner",
      "outputs": [],
      "stateMutability": "nonpayable",
      "type": "function"
    },
    {
      "inputs": [
        {
          "internalType": "uint256",
          "name": "_nonce",
          "type": "uint256"
        },
        {
          "internalType": "address payable",
          "name": "to",
          "type": "address"
        },
        {
          "internalType": "uint256",
          "name": "value",
          "type": "uint256"
        },
        {
          "internalType": "bytes",
          "name": "data",
          "type": "bytes"
        },
        {
          "internalType": "bytes",
          "name": "signature",
          "type": "bytes"
        }
      ],
      "name": "signTransaction",
      "outputs": [],
      "stateMutability": "nonpayable",
      "type": "function"
    },
    {
      "inputs": [],
      "name": "signaturesRequired",
      "outputs": [
        {
          "internalType": "uint256",
          "name": "",
          "type": "uint256"
        }
      ],
      "stateMutability": "view",
      "type": "function"
    },
    {
      "inputs": [
        {
          "internalType": "uint256",
          "name": "",
          "type": "uint256"
        }
      ],
      "name": "transactions",
      "outputs": [
        {
          "internalType": "address payable",
          "name": "to",
          "type": "address"
        },
        {
          "internalType": "uint256",
          "name": "value",
          "type": "uint256"
        },
        {
          "internalType": "bytes",
          "name": "data",
          "type": "bytes"
        },
        {
          "internalType": "bool",
          "name": "executed",
          "type": "bool"
        },
        {
          "internalType": "uint256",
          "name": "signatureCount",
          "type": "uint256"
        }
      ],
      "stateMutability": "view",
      "type": "function"
    },
    {
      "inputs": [
        {
          "internalType": "uint256",
          "name": "newSignaturesRequired",
          "type": "uint256"
        }
      ],
      "name": "updateSignaturesRequired",
      "outputs": [],
      "stateMutability": "nonpayable",
      "type": "function"
    },
    {
      "stateMutability": "payable",
      "type": "receive"
    }
  ],
  "bytecode": "0x60806040523480156200001157600080fd5b5060405162001e8238038062001e8283398101604081905262000034916200029f565b600081116200009e5760405162461bcd60e51b815260206004820152602b60248201527f636f6e7374727563746f723a206d757374206265206e6f6e2d7a65726f20736960448201526a19dcc81c995c5d5a5c995960aa1b60648201526084015b60405180910390fd5b600281905560005b82518110156200024e576000838281518110620000c757620000c762000388565b6020026020010151905060006001600160a01b0316816001600160a01b031603620001355760405162461bcd60e51b815260206004820152601960248201527f636f6e7374727563746f723a207a65726f206164647265737300000000000000604482015260640162000095565b6001600160a01b03811660009081526020819052604090205460ff1615620001a05760405162461bcd60e51b815260206004820152601d60248201527f636f6e7374727563746f723a206f776e6572206e6f7420756e69717565000000604482015260640162000095565b6001600160a01b03811660008181526020818152604091829020805460ff19166001908117825580548082019091557fb10e2d527612073b26eecdfd717e6a320cf44b4afac2b0732d9fcbe2b7fa0cf60180546001600160a01b0319168517905554915160ff909216151582527ffe545f48304051c4029eb2da9927daa59da0414b4b084fdceaf2955b609b899e910160405180910390a2508062000245816200039e565b915050620000a6565b505050600455600580546001600160a01b03191630179055620003c6565b634e487b7160e01b600052604160045260246000fd5b80516001600160a01b03811681146200029a57600080fd5b919050565b600080600060608486031215620002b557600080fd5b8351602080860151919450906001600160401b0380821115620002d757600080fd5b818701915087601f830112620002ec57600080fd5b8151818111156200030157620003016200026c565b8060051b604051601f19603f830116810181811085821117156200032957620003296200026c565b60405291825284820192508381018501918a8311156200034857600080fd5b938501935b828510156200037157620003618562000282565b845293850193928501926200034d565b809750505050505050604084015190509250925092565b634e487b7160e01b600052603260045260246000fd5b600060018201620003bf57634e487b7160e01b600052601160045260246000fd5b5060010190565b611aac80620003d66000396000f3fe6080604052600436106101025760003560e01c806365af1bed116100955780639ace38c2116100645780639ace38c21461032a578063a0e67e2b1461034a578063affed0e01461036c578063ce757d2914610382578063eec908dc1461039857600080fd5b806365af1bed146102a45780636d1f451b146102c45780637743007d146102e45780639a8a05921461031457600080fd5b80633034a742116100d15780633034a7421461020357806333ea3dc8146102255780633bad542614610256578063545a4a3c1461027657600080fd5b8063025e7c271461014857806319045a251461018557806323704eda146101a55780632f54bf6e146101c357600080fd5b36610143576040805134815247602082015233917f90890809c654f11d6e72a28fa60149770a0d11ec6c92319d6ceb2bb0a4ea1a15910160405180910390a2005b600080fd5b34801561015457600080fd5b5061016861016336600461138a565b6103b8565b6040516001600160a01b0390911681526020015b60405180910390f35b34801561019157600080fd5b506101686101a0366004611446565b6103e2565b3480156101b157600080fd5b506005546001600160a01b0316610168565b3480156101cf57600080fd5b506101f36101de3660046114a2565b60006020819052908152604090205460ff1681565b604051901515815260200161017c565b34801561020f57600080fd5b5061022361021e36600461138a565b610427565b005b34801561023157600080fd5b5061024561024036600461138a565b6104ca565b60405161017c959493929190611516565b34801561026257600080fd5b50610223610271366004611551565b6105ae565b34801561028257600080fd5b5061029661029136600461157d565b61081b565b60405190815260200161017c565b3480156102b057600080fd5b506102236102bf366004611551565b61085a565b3480156102d057600080fd5b50600554610168906001600160a01b031681565b3480156102f057600080fd5b506102966102ff36600461138a565b60009081526006602052604090206004015490565b34801561032057600080fd5b5061029660045481565b34801561033657600080fd5b5061024561034536600461138a565b610a34565b34801561035657600080fd5b5061035f610af9565b60405161017c91906115e0565b34801561037857600080fd5b5061029660035481565b34801561038e57600080fd5b5061029660025481565b3480156103a457600080fd5b506102236103b336600461162d565b610b5b565b600181815481106103c857600080fd5b6000918252602090912001546001600160a01b0316905081565b7f19457468657265756d205369676e6564204d6573736167653a0a3332000000006000908152601c839052603c812061041e9083905b90610ebc565b90505b92915050565b33301461044f5760405162461bcd60e51b8152600401610446906116b7565b60405180910390fd5b600081116104c55760405162461bcd60e51b815260206004820152603860248201527f7570646174655369676e61747572657352657175697265643a206d757374206260448201527f65206e6f6e2d7a65726f207369677320726571756972656400000000000000006064820152608401610446565b600255565b6000818152600660205260408120805460018201546003830154600484015460028501805487966060968896879692956001600160a01b03909216949093909260ff169190839061051a906116d9565b80601f0160208091040260200160405190810160405280929190818152602001828054610546906116d9565b80156105935780601f1061056857610100808354040283529160200191610593565b820191906000526020600020905b81548152906001019060200180831161057657829003601f168201915b50505050509250955095509550955095505091939590929450565b3330146105cd5760405162461bcd60e51b8152600401610446906116b7565b6001600160a01b03821660009081526020819052604090205460ff166106355760405162461bcd60e51b815260206004820152601760248201527f72656d6f76655369676e65723a206e6f74206f776e65720000000000000000006044820152606401610446565b6000811161069a5760405162461bcd60e51b815260206004820152602c60248201527f72656d6f76655369676e65723a206d757374206265206e6f6e2d7a65726f207360448201526b1a59dcc81c995c5d5a5c995960a21b6064820152608401610446565b6001600160a01b0382166000908152602081905260408120805460ff191690555b6001548110156107bf57826001600160a01b0316600182815481106106e2576106e2611713565b6000918252602090912001546001600160a01b0316036107ad576001805461070b90829061173f565b8154811061071b5761071b611713565b600091825260209091200154600180546001600160a01b03909216918390811061074757610747611713565b9060005260206000200160006101000a8154816001600160a01b0302191690836001600160a01b03160217905550600180548061078657610786611752565b600082815260209020810160001990810180546001600160a01b03191690550190556107bf565b806107b781611768565b9150506106bb565b5060028190556001600160a01b0382166000818152602081815260409182902054915160ff909216151582527ffe545f48304051c4029eb2da9927daa59da0414b4b084fdceaf2955b609b899e91015b60405180910390a25050565b6000306004548686868660405160200161083a96959493929190611781565b604051602081830303815290604052805190602001209050949350505050565b3330146108795760405162461bcd60e51b8152600401610446906116b7565b6001600160a01b0382166108cf5760405162461bcd60e51b815260206004820152601760248201527f6164645369676e65723a207a65726f20616464726573730000000000000000006044820152606401610446565b6001600160a01b03821660009081526020819052604090205460ff16156109385760405162461bcd60e51b815260206004820152601b60248201527f6164645369676e65723a206f776e6572206e6f7420756e6971756500000000006044820152606401610446565b6000811161099a5760405162461bcd60e51b815260206004820152602960248201527f6164645369676e65723a206d757374206265206e6f6e2d7a65726f2073696773604482015268081c995c5d5a5c995960ba1b6064820152608401610446565b6001600160a01b03821660008181526020818152604091829020805460ff19166001908117825580548082019091557fb10e2d527612073b26eecdfd717e6a320cf44b4afac2b0732d9fcbe2b7fa0cf60180546001600160a01b03191685179055600285905554915160ff909216151582527ffe545f48304051c4029eb2da9927daa59da0414b4b084fdceaf2955b609b899e910161080f565b6006602052600090815260409020805460018201546002830180546001600160a01b03909316939192610a66906116d9565b80601f0160208091040260200160405190810160405280929190818152602001828054610a92906116d9565b8015610adf5780601f10610ab457610100808354040283529160200191610adf565b820191906000526020600020905b815481529060010190602001808311610ac257829003601f168201915b505050506003830154600490930154919260ff1691905085565b60606001805480602002602001604051908101604052809291908181526020018280548015610b5157602002820191906000526020600020905b81546001600160a01b03168152600190910190602001808311610b33575b5050505050905090565b3360009081526020819052604090205460ff16610be05760405162461bcd60e51b815260206004820152603e60248201527f7369676e5472616e73616374696f6e3a206f6e6c79206f776e6572732063616e60448201527f20696e697469617465206f72207369676e207472616e73616374696f6e7300006064820152608401610446565b60035485148015610c0657506000858152600660205260409020546001600160a01b0316155b15610c80576003805460009081526006602052604080822080546001600160a01b0319166001600160a01b038916179055825482528082206001018690559154815220600201610c56838261182b565b50600380546000908152600660205260408082208301805460ff1916905591548152908120600401555b6000858152600660205260409020600381015460ff1615610cf15760405162461bcd60e51b815260206004820152602560248201527f5472616e73616374696f6e2068617320616c7265616479206265656e2065786560448201526418dd5d195960da1b6064820152608401610446565b6000610cff8787878761081b565b90506000610d3e84610418847f19457468657265756d205369676e6564204d6573736167653a0a3332000000006000908152601c91909152603c902090565b6001600160a01b03811660009081526020819052604090205490915060ff16610da95760405162461bcd60e51b815260206004820152601e60248201527f5369676e6174757265206973206e6f742066726f6d20616e206f776e657200006044820152606401610446565b6001600160a01b038116600090815260058401602052604090205460ff1615610e145760405162461bcd60e51b815260206004820152601a60248201527f5369676e617475726520616c7265616479207265636f726465640000000000006044820152606401610446565b6001600160a01b03811660009081526005840160205260408120805460ff1916600117905560048401805491610e4983611768565b90915550506004830154604080516001600160a01b0384168152602081018b905280820192909252517faa2d7c90b922d8f731344d0dd1eb0b0df439b3a9b17b5a1aa55b71103de906ed9181900360600190a1600254836004015410610eb257610eb288610ee0565b5050505050505050565b6000806000610ecb8585611134565b91509150610ed881611179565b509392505050565b600081815260066020526040902060025460048201541015610f5c5760405162461bcd60e51b815260206004820152602f60248201527f657865637574655472616e73616374696f6e3a206e6f7420656e6f756768207660448201526e616c6964207369676e61747572657360881b6064820152608401610446565b600381015460ff1615610fca5760405162461bcd60e51b815260206004820152603060248201527f657865637574655472616e73616374696f6e3a207472616e73616374696f6e2060448201526f185b1c9958591e48195e1958dd5d195960821b6064820152608401610446565b6003808201805460ff191660011790558054906000610fe883611768565b90915550508054600182015460405160009283926001600160a01b039091169161101690600287019061195e565b60006040518083038185875af1925050503d8060008114611053576040519150601f19603f3d011682016040523d82523d6000602084013e611058565b606091505b5091509150816110aa5760405162461bcd60e51b815260206004820152601d60248201527f657865637574655472616e73616374696f6e3a207478206661696c65640000006044820152606401610446565b8254600184015460405133927f9053e9ec105157fac8c9308d63e6b22be5f50fe915a3e567419b624311a02d74926001600160a01b0390911691600288019089906110fd9085908590859060200161196a565b60405160208183030381529060405280519060200120876040516111269695949392919061199d565b60405180910390a250505050565b600080825160410361116a5760208301516040840151606085015160001a61115e878285856112c6565b94509450505050611172565b506000905060025b9250929050565b600081600481111561118d5761118d611a60565b036111955750565b60018160048111156111a9576111a9611a60565b036111f65760405162461bcd60e51b815260206004820152601860248201527f45434453413a20696e76616c6964207369676e617475726500000000000000006044820152606401610446565b600281600481111561120a5761120a611a60565b036112575760405162461bcd60e51b815260206004820152601f60248201527f45434453413a20696e76616c6964207369676e6174757265206c656e677468006044820152606401610446565b600381600481111561126b5761126b611a60565b036112c35760405162461bcd60e51b815260206004820152602260248201527f45434453413a20696e76616c6964207369676e6174757265202773272076616c604482015261756560f01b6064820152608401610446565b50565b6000807f7fffffffffffffffffffffffffffffff5d576e7357a4501ddfe92f46681b20a08311156112fd5750600090506003611381565b6040805160008082526020820180845289905260ff881692820192909252606081018690526080810185905260019060a0016020604051602081039080840390855afa158015611351573d6000803e3d6000fd5b5050604051601f1901519150506001600160a01b03811661137a57600060019250925050611381565b9150600090505b94509492505050565b60006020828403121561139c57600080fd5b5035919050565b634e487b7160e01b600052604160045260246000fd5b600082601f8301126113ca57600080fd5b813567ffffffffffffffff808211156113e5576113e56113a3565b604051601f8301601f19908116603f0116810190828211818310171561140d5761140d6113a3565b8160405283815286602085880101111561142657600080fd5b836020870160208301376000602085830101528094505050505092915050565b6000806040838503121561145957600080fd5b82359150602083013567ffffffffffffffff81111561147757600080fd5b611483858286016113b9565b9150509250929050565b6001600160a01b03811681146112c357600080fd5b6000602082840312156114b457600080fd5b81356114bf8161148d565b9392505050565b60005b838110156114e15781810151838201526020016114c9565b50506000910152565b600081518084526115028160208601602086016114c6565b601f01601f19169290920160200192915050565b60018060a01b038616815284602082015260a06040820152600061153d60a08301866114ea565b931515606083015250608001529392505050565b6000806040838503121561156457600080fd5b823561156f8161148d565b946020939093013593505050565b6000806000806080858703121561159357600080fd5b8435935060208501356115a58161148d565b925060408501359150606085013567ffffffffffffffff8111156115c857600080fd5b6115d4878288016113b9565b91505092959194509250565b6020808252825182820181905260009190848201906040850190845b818110156116215783516001600160a01b0316835292840192918401916001016115fc565b50909695505050505050565b600080600080600060a0868803121561164557600080fd5b8535945060208601356116578161148d565b935060408601359250606086013567ffffffffffffffff8082111561167b57600080fd5b61168789838a016113b9565b9350608088013591508082111561169d57600080fd5b506116aa888289016113b9565b9150509295509295909350565b6020808252600890820152672737ba1029b2b63360c11b604082015260600190565b600181811c908216806116ed57607f821691505b60208210810361170d57634e487b7160e01b600052602260045260246000fd5b50919050565b634e487b7160e01b600052603260045260246000fd5b634e487b7160e01b600052601160045260246000fd5b8181038181111561042157610421611729565b634e487b7160e01b600052603160045260246000fd5b60006001820161177a5761177a611729565b5060010190565b60006bffffffffffffffffffffffff19808960601b168352876014840152866034840152808660601b1660548401525083606883015282516117ca8160888501602087016114c6565b91909101608801979650505050505050565b601f82111561182657600081815260208120601f850160051c810160208610156118035750805b601f850160051c820191505b818110156118225782815560010161180f565b5050505b505050565b815167ffffffffffffffff811115611845576118456113a3565b6118598161185384546116d9565b846117dc565b602080601f83116001811461188e57600084156118765750858301515b600019600386901b1c1916600185901b178555611822565b600085815260208120601f198616915b828110156118bd5788860151825594840194600190910190840161189e565b50858210156118db5787850151600019600388901b60f8161c191681555b5050505050600190811b01905550565b600081546118f8816116d9565b60018281168015611910576001811461192557611954565b60ff1984168752821515830287019450611954565b8560005260208060002060005b8581101561194b5781548a820152908401908201611932565b50505082870194505b5050505092915050565b600061041e82846118eb565b6bffffffffffffffffffffffff198460601b168152826014820152600061199460348301846118eb565b95945050505050565b60018060a01b038716815260006020878184015260c06040840152600087546119c5816116d9565b8060c087015260e06001808416600081146119e75760018114611a0157611a2f565b60ff1985168984015283151560051b890183019550611a2f565b8c6000528660002060005b85811015611a275781548b8201860152908301908801611a0c565b8a0184019650505b505050505086606085015285608085015283810360a0850152611a5281866114ea565b9a9950505050505050505050565b634e487b7160e01b600052602160045260246000fdfea264697066735822122005011d68e5d951274eccf1b0304f216db3fd8da7c56b9b30565d6d8fc9b0388064736f6c63430008140033",
  "linkReferences": {},
  "deployedLinkReferences": {}
}